{
  "contractName": "Presale",
  "abi": [
    {
      "inputs": [
        {
          "internalType": "address",
          "name": "lockerAddr",
          "type": "address"
        },
        {
          "internalType": "address",
          "name": "seedingSetting",
          "type": "address"
        },
        {
          "internalType": "address",
          "name": "privateSaleSetting",
          "type": "address"
        },
        {
          "internalType": "address",
          "name": "publicSaleSetting",
          "type": "address"
        },
        {
          "internalType": "address",
          "name": "usdtAddr",
          "type": "address"
        },
        {
          "internalType": "address",
          "name": "busdAddr",
          "type": "address"
        },
        {
          "internalType": "address",
          "name": "coriAddr",
          "type": "address"
        }
      ],
      "stateMutability": "nonpayable",
      "type": "constructor"
    },
    {
      "anonymous": false,
      "inputs": [
        {
          "indexed": false,
          "internalType": "address",
          "name": "buyer",
          "type": "address"
        },
        {
          "indexed": false,
          "internalType": "uint256",
          "name": "amount",
          "type": "uint256"
        }
      ],
      "name": "BuyToken",
      "type": "event"
    },
    {
      "anonymous": false,
      "inputs": [
        {
          "indexed": true,
          "internalType": "address",
          "name": "previousOwner",
          "type": "address"
        },
        {
          "indexed": true,
          "internalType": "address",
          "name": "newOwner",
          "type": "address"
        }
      ],
      "name": "OwnershipTransferred",
      "type": "event"
    },
    {
      "inputs": [],
      "name": "BUSD_ADDRESS",
      "outputs": [
        {
          "internalType": "address",
          "name": "",
          "type": "address"
        }
      ],
      "stateMutability": "view",
      "type": "function",
      "constant": true
    },
    {
      "inputs": [],
      "name": "FIWA_TOKEN",
      "outputs": [
        {
          "internalType": "contract IERC20",
          "name": "",
          "type": "address"
        }
      ],
      "stateMutability": "view",
      "type": "function",
      "constant": true
    },
    {
      "inputs": [],
      "name": "PRIVATE_SALE_SETTING",
      "outputs": [
        {
          "internalType": "contract ISetting",
          "name": "",
          "type": "address"
        }
      ],
      "stateMutability": "view",
      "type": "function",
      "constant": true
    },
    {
      "inputs": [],
      "name": "PUBLIC_SALE_SETTING",
      "outputs": [
        {
          "internalType": "contract ISetting",
          "name": "",
          "type": "address"
        }
      ],
      "stateMutability": "view",
      "type": "function",
      "constant": true
    },
    {
      "inputs": [],
      "name": "SEEDING_SETTING",
      "outputs": [
        {
          "internalType": "contract ISetting",
          "name": "",
          "type": "address"
        }
      ],
      "stateMutability": "view",
      "type": "function",
      "constant": true
    },
    {
      "inputs": [],
      "name": "USDT_ADDRESS",
      "outputs": [
        {
          "internalType": "address",
          "name": "",
          "type": "address"
        }
      ],
      "stateMutability": "view",
      "type": "function",
      "constant": true
    },
    {
      "inputs": [
        {
          "internalType": "address",
          "name": "",
          "type": "address"
        }
      ],
      "name": "balances",
      "outputs": [
        {
          "internalType": "uint256",
          "name": "",
          "type": "uint256"
        }
      ],
      "stateMutability": "view",
      "type": "function",
      "constant": true
    },
    {
      "inputs": [],
      "name": "currentSetting",
      "outputs": [
        {
          "internalType": "contract ISetting",
          "name": "",
          "type": "address"
        }
      ],
      "stateMutability": "view",
      "type": "function",
      "constant": true
    },
    {
      "inputs": [],
      "name": "locker",
      "outputs": [
        {
          "internalType": "contract ILocker",
          "name": "",
          "type": "address"
        }
      ],
      "stateMutability": "view",
      "type": "function",
      "constant": true
    },
    {
      "inputs": [],
      "name": "owner",
      "outputs": [
        {
          "internalType": "address",
          "name": "",
          "type": "address"
        }
      ],
      "stateMutability": "view",
      "type": "function",
      "constant": true
    },
    {
      "inputs": [
        {
          "internalType": "address",
          "name": "",
          "type": "address"
        }
      ],
      "name": "presaleIndex",
      "outputs": [
        {
          "internalType": "uint256",
          "name": "",
          "type": "uint256"
        }
      ],
      "stateMutability": "view",
      "type": "function",
      "constant": true
    },
    {
      "inputs": [],
      "name": "renounceOwnership",
      "outputs": [],
      "stateMutability": "nonpayable",
      "type": "function"
    },
    {
      "inputs": [
        {
          "internalType": "address",
          "name": "",
          "type": "address"
        }
      ],
      "name": "totalSold",
      "outputs": [
        {
          "internalType": "uint256",
          "name": "",
          "type": "uint256"
        }
      ],
      "stateMutability": "view",
      "type": "function",
      "constant": true
    },
    {
      "inputs": [],
      "name": "totalTokenSold",
      "outputs": [
        {
          "internalType": "uint256",
          "name": "",
          "type": "uint256"
        }
      ],
      "stateMutability": "view",
      "type": "function",
      "constant": true
    },
    {
      "inputs": [
        {
          "internalType": "address",
          "name": "newOwner",
          "type": "address"
        }
      ],
      "name": "transferOwnership",
      "outputs": [],
      "stateMutability": "nonpayable",
      "type": "function"
    },
    {
      "inputs": [
        {
          "internalType": "address",
          "name": "",
          "type": "address"
        }
      ],
      "name": "whitelist",
      "outputs": [
        {
          "internalType": "bool",
          "name": "",
          "type": "bool"
        }
      ],
      "stateMutability": "view",
      "type": "function",
      "constant": true
    },
    {
      "inputs": [
        {
          "internalType": "address[]",
          "name": "addr",
          "type": "address[]"
        }
      ],
      "name": "addWhitelist",
      "outputs": [],
      "stateMutability": "nonpayable",
      "type": "function"
    },
    {
      "inputs": [
        {
          "internalType": "uint256",
          "name": "amount",
          "type": "uint256"
        },
        {
          "internalType": "enum Presale.TokenType",
          "name": "tokenType",
          "type": "uint8"
        }
      ],
      "name": "buyToken",
      "outputs": [],
      "stateMutability": "nonpayable",
      "type": "function"
    },
    {
      "inputs": [],
      "name": "ownerWithdraw",
      "outputs": [],
      "stateMutability": "nonpayable",
      "type": "function"
    }
  ],
  "bytecode": "0x60806040523480156200001157600080fd5b506040516200329c3803806200329c83398181016040528101906200003791906200040c565b600062000049620003ed60201b60201c565b9050806000806101000a81548173ffffffffffffffffffffffffffffffffffffffff021916908373ffffffffffffffffffffffffffffffffffffffff1602179055508073ffffffffffffffffffffffffffffffffffffffff16600073ffffffffffffffffffffffffffffffffffffffff167f8be0079c531659141344cd1fd0a4f28419497f9722a3daafe3b4186f6b6457e060405160405180910390a35085600960006101000a81548173ffffffffffffffffffffffffffffffffffffffff021916908373ffffffffffffffffffffffffffffffffffffffff16021790555084600a60006101000a81548173ffffffffffffffffffffffffffffffffffffffff021916908373ffffffffffffffffffffffffffffffffffffffff16021790555083600b60006101000a81548173ffffffffffffffffffffffffffffffffffffffff021916908373ffffffffffffffffffffffffffffffffffffffff160217905550600960009054906101000a900473ffffffffffffffffffffffffffffffffffffffff16600c60006101000a81548173ffffffffffffffffffffffffffffffffffffffff021916908373ffffffffffffffffffffffffffffffffffffffff16021790555082600660006101000a81548173ffffffffffffffffffffffffffffffffffffffff021916908373ffffffffffffffffffffffffffffffffffffffff16021790555081600760006101000a81548173ffffffffffffffffffffffffffffffffffffffff021916908373ffffffffffffffffffffffffffffffffffffffff1602179055506000600560008873ffffffffffffffffffffffffffffffffffffffff1673ffffffffffffffffffffffffffffffffffffffff168152602001908152602001600020819055506001600560008773ffffffffffffffffffffffffffffffffffffffff1673ffffffffffffffffffffffffffffffffffffffff168152602001908152602001600020819055506002600560008673ffffffffffffffffffffffffffffffffffffffff1673ffffffffffffffffffffffffffffffffffffffff1681526020019081526020016000208190555080600860006101000a81548173ffffffffffffffffffffffffffffffffffffffff021916908373ffffffffffffffffffffffffffffffffffffffff16021790555086600d60006101000a81548173ffffffffffffffffffffffffffffffffffffffff021916908373ffffffffffffffffffffffffffffffffffffffff1602179055505050505050505062000507565b600033905090565b6000815190506200040681620004ed565b92915050565b600080600080600080600060e0888a0312156200042857600080fd5b6000620004388a828b01620003f5565b97505060206200044b8a828b01620003f5565b96505060406200045e8a828b01620003f5565b9550506060620004718a828b01620003f5565b9450506080620004848a828b01620003f5565b93505060a0620004978a828b01620003f5565b92505060c0620004aa8a828b01620003f5565b91505092959891949750929550565b6000620004c682620004cd565b9050919050565b600073ffffffffffffffffffffffffffffffffffffffff82169050919050565b620004f881620004b9565b81146200050457600080fd5b50565b612d8580620005176000396000f3fe608060405234801561001057600080fd5b50600436106101215760003560e01c80639b19251a116100ad578063dce3804611610071578063dce38046146102d6578063e25fb6ee146102f4578063edac985b14610324578063f2fde38b14610340578063fb0ee5eb1461035c57610121565b80639b19251a1461022e578063b5f7f6361461025e578063c18920581461027c578063c1b19a781461029a578063d7b96d4e146102b857610121565b806352bf315a116100f457806352bf315a1461019a578063572b8734146101ca578063715018a6146101e85780637298bd17146101f25780638da5cb5b1461021057610121565b806323e998ff1461012657806327e235e3146101445780634311de8f146101745780634ce58f151461017e575b600080fd5b61012e61037a565b60405161013b91906126c3565b60405180910390f35b61015e6004803603810190610159919061231e565b6103a0565b60405161016b91906127de565b60405180910390f35b61017c6103b8565b005b610198600480360381019061019391906123da565b6108c5565b005b6101b460048036038101906101af919061231e565b6110c6565b6040516101c191906127de565b60405180910390f35b6101d26110de565b6040516101df91906126c3565b60405180910390f35b6101f0611104565b005b6101fa61123e565b60405161020791906126c3565b60405180910390f35b610218611264565b6040516102259190612588565b60405180910390f35b6102486004803603810190610243919061231e565b61128d565b6040516102559190612672565b60405180910390f35b6102666112ad565b60405161027391906127de565b60405180910390f35b6102846112b3565b6040516102919190612588565b60405180910390f35b6102a26112d9565b6040516102af9190612588565b60405180910390f35b6102c06112ff565b6040516102cd91906126a8565b60405180910390f35b6102de611325565b6040516102eb919061268d565b60405180910390f35b61030e6004803603810190610309919061231e565b61134b565b60405161031b91906127de565b60405180910390f35b61033e60048036038101906103399190612347565b611363565b005b61035a6004803603810190610355919061231e565b61149a565b005b610364611643565b60405161037191906126c3565b60405180910390f35b600b60009054906101000a900473ffffffffffffffffffffffffffffffffffffffff1681565b60026020528060005260406000206000915090505481565b6103c0611669565b73ffffffffffffffffffffffffffffffffffffffff166103de611264565b73ffffffffffffffffffffffffffffffffffffffff1614610434576040517f08c379a000000000000000000000000000000000000000000000000000000000815260040161042b9061277e565b60405180910390fd5b600b60009054906101000a900473ffffffffffffffffffffffffffffffffffffffff1673ffffffffffffffffffffffffffffffffffffffff1663efbe1c1c6040518163ffffffff1660e01b815260040160206040518083038186803b15801561049c57600080fd5b505afa1580156104b0573d6000803e3d6000fd5b505050506040513d601f19601f820116820180604052508101906104d491906123b1565b4311610515576040517f08c379a000000000000000000000000000000000000000000000000000000000815260040161050c9061271e565b60405180910390fd5b6000600660009054906101000a900473ffffffffffffffffffffffffffffffffffffffff1690506000600760009054906101000a900473ffffffffffffffffffffffffffffffffffffffff16905060008273ffffffffffffffffffffffffffffffffffffffff166370a08231306040518263ffffffff1660e01b815260040161059e9190612588565b60206040518083038186803b1580156105b657600080fd5b505afa1580156105ca573d6000803e3d6000fd5b505050506040513d601f19601f820116820180604052508101906105ee91906123b1565b1115610712578173ffffffffffffffffffffffffffffffffffffffff1663a9059cbb610618611264565b8473ffffffffffffffffffffffffffffffffffffffff166370a08231306040518263ffffffff1660e01b81526004016106519190612588565b60206040518083038186803b15801561066957600080fd5b505afa15801561067d573d6000803e3d6000fd5b505050506040513d601f19601f820116820180604052508101906106a191906123b1565b6040518363ffffffff1660e01b81526004016106be9291906125da565b602060405180830381600087803b1580156106d857600080fd5b505af11580156106ec573d6000803e3d6000fd5b505050506040513d601f19601f820116820180604052508101906107109190612388565b505b60008173ffffffffffffffffffffffffffffffffffffffff166370a08231306040518263ffffffff1660e01b815260040161074d9190612588565b60206040518083038186803b15801561076557600080fd5b505afa158015610779573d6000803e3d6000fd5b505050506040513d601f19601f8201168201806040525081019061079d91906123b1565b11156108c1578073ffffffffffffffffffffffffffffffffffffffff1663a9059cbb6107c7611264565b8373ffffffffffffffffffffffffffffffffffffffff166370a08231306040518263ffffffff1660e01b81526004016108009190612588565b60206040518083038186803b15801561081857600080fd5b505afa15801561082c573d6000803e3d6000fd5b505050506040513d601f19601f8201168201806040525081019061085091906123b1565b6040518363ffffffff1660e01b815260040161086d9291906125da565b602060405180830381600087803b15801561088757600080fd5b505af115801561089b573d6000803e3d6000fd5b505050506040513d601f19601f820116820180604052508101906108bf9190612388565b505b5050565b6108cd611671565b600b60009054906101000a900473ffffffffffffffffffffffffffffffffffffffff1673ffffffffffffffffffffffffffffffffffffffff16600c60009054906101000a900473ffffffffffffffffffffffffffffffffffffffff1673ffffffffffffffffffffffffffffffffffffffff16146109d85760046000610950611669565b73ffffffffffffffffffffffffffffffffffffffff1673ffffffffffffffffffffffffffffffffffffffff16815260200190815260200160002060009054906101000a900460ff166109d7576040517f08c379a00000000000000000000000000000000000000000000000000000000081526004016109ce9061279e565b60405180910390fd5b5b600c60009054906101000a900473ffffffffffffffffffffffffffffffffffffffff1673ffffffffffffffffffffffffffffffffffffffff1663be9a65556040518163ffffffff1660e01b815260040160206040518083038186803b158015610a4057600080fd5b505afa158015610a54573d6000803e3d6000fd5b505050506040513d601f19601f82011682018060405250810190610a7891906123b1565b4310158015610b255750600c60009054906101000a900473ffffffffffffffffffffffffffffffffffffffff1673ffffffffffffffffffffffffffffffffffffffff1663efbe1c1c6040518163ffffffff1660e01b815260040160206040518083038186803b158015610aea57600080fd5b505afa158015610afe573d6000803e3d6000fd5b505050506040513d601f19601f82011682018060405250810190610b2291906123b1565b43105b610b64576040517f08c379a0000000000000000000000000000000000000000000000000000000008152600401610b5b906127be565b60405180910390fd5b60006001811115610b9e577f4e487b7100000000000000000000000000000000000000000000000000000000600052602160045260246000fd5b816001811115610bd7577f4e487b7100000000000000000000000000000000000000000000000000000000600052602160045260246000fd5b1480610c525750600180811115610c17577f4e487b7100000000000000000000000000000000000000000000000000000000600052602160045260246000fd5b816001811115610c50577f4e487b7100000000000000000000000000000000000000000000000000000000600052602160045260246000fd5b145b610c91576040517f08c379a0000000000000000000000000000000000000000000000000000000008152600401610c88906126fe565b60405180910390fd5b6000600c60009054906101000a900473ffffffffffffffffffffffffffffffffffffffff1673ffffffffffffffffffffffffffffffffffffffff1663a035b1fe6040518163ffffffff1660e01b815260040160206040518083038186803b158015610cfb57600080fd5b505afa158015610d0f573d6000803e3d6000fd5b505050506040513d601f19601f82011682018060405250810190610d3391906123b1565b83610d3e91906128b1565b9050600c60009054906101000a900473ffffffffffffffffffffffffffffffffffffffff1673ffffffffffffffffffffffffffffffffffffffff166333b5b62e6040518163ffffffff1660e01b815260040160206040518083038186803b158015610da857600080fd5b505afa158015610dbc573d6000803e3d6000fd5b505050506040513d601f19601f82011682018060405250810190610de091906123b1565b811015610e22576040517f08c379a0000000000000000000000000000000000000000000000000000000008152600401610e199061275e565b60405180910390fd5b600c60009054906101000a900473ffffffffffffffffffffffffffffffffffffffff1673ffffffffffffffffffffffffffffffffffffffff166318160ddd6040518163ffffffff1660e01b815260040160206040518083038186803b158015610e8a57600080fd5b505afa158015610e9e573d6000803e3d6000fd5b505050506040513d601f19601f82011682018060405250810190610ec291906123b1565b8160036000600c60009054906101000a900473ffffffffffffffffffffffffffffffffffffffff1673ffffffffffffffffffffffffffffffffffffffff1673ffffffffffffffffffffffffffffffffffffffff16815260200190815260200160002054610f2f919061285b565b1115610f70576040517f08c379a0000000000000000000000000000000000000000000000000000000008152600401610f679061273e565b60405180910390fd5b6000806001811115610fab577f4e487b7100000000000000000000000000000000000000000000000000000000600052602160045260246000fd5b836001811115610fe4577f4e487b7100000000000000000000000000000000000000000000000000000000600052602160045260246000fd5b141561101057600660009054906101000a900473ffffffffffffffffffffffffffffffffffffffff1690505b600180811115611049577f4e487b7100000000000000000000000000000000000000000000000000000000600052602160045260246000fd5b836001811115611082577f4e487b7100000000000000000000000000000000000000000000000000000000600052602160045260246000fd5b14156110ae57600760009054906101000a900473ffffffffffffffffffffffffffffffffffffffff1690505b6110c06110b9611669565b8583611ba2565b50505050565b60056020528060005260406000206000915090505481565b600960009054906101000a900473ffffffffffffffffffffffffffffffffffffffff1681565b61110c611669565b73ffffffffffffffffffffffffffffffffffffffff1661112a611264565b73ffffffffffffffffffffffffffffffffffffffff1614611180576040517f08c379a00000000000000000000000000000000000000000000000000000000081526004016111779061277e565b60405180910390fd5b600073ffffffffffffffffffffffffffffffffffffffff1660008054906101000a900473ffffffffffffffffffffffffffffffffffffffff1673ffffffffffffffffffffffffffffffffffffffff167f8be0079c531659141344cd1fd0a4f28419497f9722a3daafe3b4186f6b6457e060405160405180910390a360008060006101000a81548173ffffffffffffffffffffffffffffffffffffffff021916908373ffffffffffffffffffffffffffffffffffffffff160217905550565b600c60009054906101000a900473ffffffffffffffffffffffffffffffffffffffff1681565b60008060009054906101000a900473ffffffffffffffffffffffffffffffffffffffff16905090565b60046020528060005260406000206000915054906101000a900460ff1681565b60015481565b600660009054906101000a900473ffffffffffffffffffffffffffffffffffffffff1681565b600760009054906101000a900473ffffffffffffffffffffffffffffffffffffffff1681565b600d60009054906101000a900473ffffffffffffffffffffffffffffffffffffffff1681565b600860009054906101000a900473ffffffffffffffffffffffffffffffffffffffff1681565b60036020528060005260406000206000915090505481565b61136b611669565b73ffffffffffffffffffffffffffffffffffffffff16611389611264565b73ffffffffffffffffffffffffffffffffffffffff16146113df576040517f08c379a00000000000000000000000000000000000000000000000000000000081526004016113d69061277e565b60405180910390fd5b60005b81518110156114965760016004600084848151811061142a577f4e487b7100000000000000000000000000000000000000000000000000000000600052603260045260246000fd5b602002602001015173ffffffffffffffffffffffffffffffffffffffff1673ffffffffffffffffffffffffffffffffffffffff16815260200190815260200160002060006101000a81548160ff021916908315150217905550808061148e906129f0565b9150506113e2565b5050565b6114a2611669565b73ffffffffffffffffffffffffffffffffffffffff166114c0611264565b73ffffffffffffffffffffffffffffffffffffffff1614611516576040517f08c379a000000000000000000000000000000000000000000000000000000000815260040161150d9061277e565b60405180910390fd5b600073ffffffffffffffffffffffffffffffffffffffff168173ffffffffffffffffffffffffffffffffffffffff161415611586576040517f08c379a000000000000000000000000000000000000000000000000000000000815260040161157d906126de565b60405180910390fd5b8073ffffffffffffffffffffffffffffffffffffffff1660008054906101000a900473ffffffffffffffffffffffffffffffffffffffff1673ffffffffffffffffffffffffffffffffffffffff167f8be0079c531659141344cd1fd0a4f28419497f9722a3daafe3b4186f6b6457e060405160405180910390a3806000806101000a81548173ffffffffffffffffffffffffffffffffffffffff021916908373ffffffffffffffffffffffffffffffffffffffff16021790555050565b600a60009054906101000a900473ffffffffffffffffffffffffffffffffffffffff1681565b600033905090565b600960009054906101000a900473ffffffffffffffffffffffffffffffffffffffff1673ffffffffffffffffffffffffffffffffffffffff1663be9a65556040518163ffffffff1660e01b815260040160206040518083038186803b1580156116d957600080fd5b505afa1580156116ed573d6000803e3d6000fd5b505050506040513d601f19601f8201168201806040525081019061171191906123b1565b43101580156117bf5750600960009054906101000a900473ffffffffffffffffffffffffffffffffffffffff1673ffffffffffffffffffffffffffffffffffffffff1663efbe1c1c6040518163ffffffff1660e01b815260040160206040518083038186803b15801561178357600080fd5b505afa158015611797573d6000803e3d6000fd5b505050506040513d601f19601f820116820180604052508101906117bb91906123b1565b4311155b1561182c57600960009054906101000a900473ffffffffffffffffffffffffffffffffffffffff16600c60006101000a81548173ffffffffffffffffffffffffffffffffffffffff021916908373ffffffffffffffffffffffffffffffffffffffff160217905550611ba0565b600a60009054906101000a900473ffffffffffffffffffffffffffffffffffffffff1673ffffffffffffffffffffffffffffffffffffffff1663be9a65556040518163ffffffff1660e01b815260040160206040518083038186803b15801561189457600080fd5b505afa1580156118a8573d6000803e3d6000fd5b505050506040513d601f19601f820116820180604052508101906118cc91906123b1565b431015801561197a5750600a60009054906101000a900473ffffffffffffffffffffffffffffffffffffffff1673ffffffffffffffffffffffffffffffffffffffff1663efbe1c1c6040518163ffffffff1660e01b815260040160206040518083038186803b15801561193e57600080fd5b505afa158015611952573d6000803e3d6000fd5b505050506040513d601f19601f8201168201806040525081019061197691906123b1565b4311155b156119e757600a60009054906101000a900473ffffffffffffffffffffffffffffffffffffffff16600c60006101000a81548173ffffffffffffffffffffffffffffffffffffffff021916908373ffffffffffffffffffffffffffffffffffffffff160217905550611b9f565b600b60009054906101000a900473ffffffffffffffffffffffffffffffffffffffff1673ffffffffffffffffffffffffffffffffffffffff1663be9a65556040518163ffffffff1660e01b815260040160206040518083038186803b158015611a4f57600080fd5b505afa158015611a63573d6000803e3d6000fd5b505050506040513d601f19601f82011682018060405250810190611a8791906123b1565b4310158015611b355750600b60009054906101000a900473ffffffffffffffffffffffffffffffffffffffff1673ffffffffffffffffffffffffffffffffffffffff1663efbe1c1c6040518163ffffffff1660e01b815260040160206040518083038186803b158015611af957600080fd5b505afa158015611b0d573d6000803e3d6000fd5b505050506040513d601f19601f82011682018060405250810190611b3191906123b1565b4311155b15611b9e57600b60009054906101000a900473ffffffffffffffffffffffffffffffffffffffff16600c60006101000a81548173ffffffffffffffffffffffffffffffffffffffff021916908373ffffffffffffffffffffffffffffffffffffffff1602179055505b5b5b565b6000600c60009054906101000a900473ffffffffffffffffffffffffffffffffffffffff1673ffffffffffffffffffffffffffffffffffffffff1663a035b1fe6040518163ffffffff1660e01b815260040160206040518083038186803b158015611c0c57600080fd5b505afa158015611c20573d6000803e3d6000fd5b505050506040513d601f19601f82011682018060405250810190611c4491906123b1565b83611c4f91906128b1565b90508173ffffffffffffffffffffffffffffffffffffffff166323b872dd8530866040518463ffffffff1660e01b8152600401611c8e939291906125a3565b602060405180830381600087803b158015611ca857600080fd5b505af1158015611cbc573d6000803e3d6000fd5b505050506040513d601f19601f82011682018060405250810190611ce09190612388565b50600860009054906101000a900473ffffffffffffffffffffffffffffffffffffffff1673ffffffffffffffffffffffffffffffffffffffff166323b872dd611d27611264565b86846040518463ffffffff1660e01b8152600401611d47939291906125a3565b602060405180830381600087803b158015611d6157600080fd5b505af1158015611d75573d6000803e3d6000fd5b505050506040513d601f19601f82011682018060405250810190611d999190612388565b508060036000600c60009054906101000a900473ffffffffffffffffffffffffffffffffffffffff1673ffffffffffffffffffffffffffffffffffffffff1673ffffffffffffffffffffffffffffffffffffffff1681526020019081526020016000206000828254611e0b919061285b565b925050819055508060016000828254611e24919061285b565b92505081905550600b60009054906101000a900473ffffffffffffffffffffffffffffffffffffffff1673ffffffffffffffffffffffffffffffffffffffff16600c60009054906101000a900473ffffffffffffffffffffffffffffffffffffffff1673ffffffffffffffffffffffffffffffffffffffff161461221957600d60009054906101000a900473ffffffffffffffffffffffffffffffffffffffff1673ffffffffffffffffffffffffffffffffffffffff1663ad3b62268583600c60009054906101000a900473ffffffffffffffffffffffffffffffffffffffff1673ffffffffffffffffffffffffffffffffffffffff1663be9a65556040518163ffffffff1660e01b815260040160206040518083038186803b158015611f4a57600080fd5b505afa158015611f5e573d6000803e3d6000fd5b505050506040513d601f19601f82011682018060405250810190611f8291906123b1565b600c60009054906101000a900473ffffffffffffffffffffffffffffffffffffffff1673ffffffffffffffffffffffffffffffffffffffff1663efbe1c1c6040518163ffffffff1660e01b815260040160206040518083038186803b158015611fea57600080fd5b505afa158015611ffe573d6000803e3d6000fd5b505050506040513d601f19601f8201168201806040525081019061202291906123b1565b600c60009054906101000a900473ffffffffffffffffffffffffffffffffffffffff1673ffffffffffffffffffffffffffffffffffffffff1663014ac83d6040518163ffffffff1660e01b815260040160206040518083038186803b15801561208a57600080fd5b505afa15801561209e573d6000803e3d6000fd5b505050506040513d601f19601f820116820180604052508101906120c291906123b1565b600c60009054906101000a900473ffffffffffffffffffffffffffffffffffffffff1673ffffffffffffffffffffffffffffffffffffffff166313d033c06040518163ffffffff1660e01b815260040160206040518083038186803b15801561212a57600080fd5b505afa15801561213e573d6000803e3d6000fd5b505050506040513d601f19601f8201168201806040525081019061216291906123b1565b60056000600c60009054906101000a900473ffffffffffffffffffffffffffffffffffffffff1673ffffffffffffffffffffffffffffffffffffffff1673ffffffffffffffffffffffffffffffffffffffff168152602001908152602001600020546040518863ffffffff1660e01b81526004016121e69796959493929190612603565b600060405180830381600087803b15801561220057600080fd5b505af1158015612214573d6000803e3d6000fd5b505050505b50505050565b600061223261222d8461281e565b6127f9565b9050808382526020820190508285602086028201111561225157600080fd5b60005b858110156122815781612267888261228b565b845260208401935060208301925050600181019050612254565b5050509392505050565b60008135905061229a81612cfa565b92915050565b600082601f8301126122b157600080fd5b81356122c184826020860161221f565b91505092915050565b6000815190506122d981612d11565b92915050565b6000813590506122ee81612d28565b92915050565b60008135905061230381612d38565b92915050565b60008151905061231881612d38565b92915050565b60006020828403121561233057600080fd5b600061233e8482850161228b565b91505092915050565b60006020828403121561235957600080fd5b600082013567ffffffffffffffff81111561237357600080fd5b61237f848285016122a0565b91505092915050565b60006020828403121561239a57600080fd5b60006123a8848285016122ca565b91505092915050565b6000602082840312156123c357600080fd5b60006123d184828501612309565b91505092915050565b600080604083850312156123ed57600080fd5b60006123fb858286016122f4565b925050602061240c858286016122df565b9150509250929050565b61241f8161290b565b82525050565b61242e8161291d565b82525050565b61243d81612953565b82525050565b61244c81612977565b82525050565b61245b8161299b565b82525050565b600061246e60268361284a565b915061247982612aa8565b604082019050919050565b600061249160128361284a565b915061249c82612af7565b602082019050919050565b60006124b460148361284a565b91506124bf82612b20565b602082019050919050565b60006124d760238361284a565b91506124e282612b49565b604082019050919050565b60006124fa60448361284a565b915061250582612b98565b606082019050919050565b600061251d60208361284a565b915061252882612c0d565b602082019050919050565b600061254060458361284a565b915061254b82612c36565b606082019050919050565b600061256360238361284a565b915061256e82612cab565b604082019050919050565b61258281612949565b82525050565b600060208201905061259d6000830184612416565b92915050565b60006060820190506125b86000830186612416565b6125c56020830185612416565b6125d26040830184612579565b949350505050565b60006040820190506125ef6000830185612416565b6125fc6020830184612579565b9392505050565b600060e082019050612618600083018a612416565b6126256020830189612579565b6126326040830188612579565b61263f6060830187612579565b61264c6080830186612579565b61265960a0830185612579565b61266660c0830184612579565b98975050505050505050565b60006020820190506126876000830184612425565b92915050565b60006020820190506126a26000830184612434565b92915050565b60006020820190506126bd6000830184612443565b92915050565b60006020820190506126d86000830184612452565b92915050565b600060208201905081810360008301526126f781612461565b9050919050565b6000602082019050818103600083015261271781612484565b9050919050565b60006020820190508181036000830152612737816124a7565b9050919050565b60006020820190508181036000830152612757816124ca565b9050919050565b60006020820190508181036000830152612777816124ed565b9050919050565b6000602082019050818103600083015261279781612510565b9050919050565b600060208201905081810360008301526127b781612533565b9050919050565b600060208201905081810360008301526127d781612556565b9050919050565b60006020820190506127f36000830184612579565b92915050565b6000612803612814565b905061280f82826129bf565b919050565b6000604051905090565b600067ffffffffffffffff82111561283957612838612a68565b5b602082029050602081019050919050565b600082825260208201905092915050565b600061286682612949565b915061287183612949565b9250827fffffffffffffffffffffffffffffffffffffffffffffffffffffffffffffffff038211156128a6576128a5612a39565b5b828201905092915050565b60006128bc82612949565b91506128c783612949565b9250817fffffffffffffffffffffffffffffffffffffffffffffffffffffffffffffffff0483118215151615612900576128ff612a39565b5b828202905092915050565b600061291682612929565b9050919050565b60008115159050919050565b600073ffffffffffffffffffffffffffffffffffffffff82169050919050565b6000819050919050565b600061295e82612965565b9050919050565b600061297082612929565b9050919050565b600061298282612989565b9050919050565b600061299482612929565b9050919050565b60006129a6826129ad565b9050919050565b60006129b882612929565b9050919050565b6129c882612a97565b810181811067ffffffffffffffff821117156129e7576129e6612a68565b5b80604052505050565b60006129fb82612949565b91507fffffffffffffffffffffffffffffffffffffffffffffffffffffffffffffffff821415612a2e57612a2d612a39565b5b600182019050919050565b7f4e487b7100000000000000000000000000000000000000000000000000000000600052601160045260246000fd5b7f4e487b7100000000000000000000000000000000000000000000000000000000600052604160045260246000fd5b6000601f19601f8301169050919050565b7f4f776e61626c653a206e6577206f776e657220697320746865207a65726f206160008201527f6464726573730000000000000000000000000000000000000000000000000000602082015250565b7f496e76616c696420746f6b656e20747970650000000000000000000000000000600082015250565b7f50726573616c65206973206e6f7420656e646564000000000000000000000000600082015250565b7f4e6f206d6f726520746f6b656e20746f2073656c6c20696e207468697320726f60008201527f756e640000000000000000000000000000000000000000000000000000000000602082015250565b7f496e7665737420616d6f756e74206d757374206c6172676572206f722065717560008201527f616c20746f207468616e206d696e696e696d756d20707572636861736520616d60208201527f6f756e7400000000000000000000000000000000000000000000000000000000604082015250565b7f4f776e61626c653a2063616c6c6572206973206e6f7420746865206f776e6572600082015250565b7f4e6f742077686974656c697374656420616464726573732c20796f752061726560008201527f206e6f7420616c6c6f77656420746f20707572636861736520696e207468697360208201527f2074696d65000000000000000000000000000000000000000000000000000000604082015250565b7f50726573616c65206973206e6f742073746172746564206f722068617320656e60008201527f6465640000000000000000000000000000000000000000000000000000000000602082015250565b612d038161290b565b8114612d0e57600080fd5b50565b612d1a8161291d565b8114612d2557600080fd5b50565b60028110612d3557600080fd5b50565b612d4181612949565b8114612d4c57600080fd5b5056fea264697066735822122065880639a4bfce649d1feeb60f09396c9c46881e4ad0b2859c596c58ae56bf9e64736f6c63430008010033",
  "immutableReferences": {},
  "source": "/**\n *Submitted for verification at BscScan.com on 2021-05-09\n*/\n\n// SPDX-License-Identifier: MIT\n\n\npragma solidity ^0.8.0;\n\nimport {Ownable} from \"./utils/Ownable.sol\";\nimport {IERC20} from \"./extensions/IERC20.sol\";\nimport {ILocker} from \"./extensions/ILocker.sol\";\n\n\ninterface ISetting {\n    function name() external view returns (string memory);\n    function start() external view returns (uint256);\n    function end() external view returns (uint256);\n    function price() external view returns (uint256);\n    function lockDuration() external view returns (uint256);\n    function totalSupply() external view returns (uint256);\n    function minPurchase() external view returns (uint256);\n    function vestingMonth() external view returns (uint256);\n    function cliff() external view returns (uint256);\n}\n\ncontract Presale is Ownable {\n\n    uint256 public totalTokenSold;\n\n    mapping(address => uint256) public balances;\n    // tracking token sold by each stage using address of setting contracts.\n    mapping(address => uint256) public totalSold;\n    // list of users allowed to purchase in seeding and private sale\n    mapping(address => bool) public whitelist;\n\n    mapping(address => uint) public presaleIndex;\n\n    address public USDT_ADDRESS;\n    address public BUSD_ADDRESS;\n\n    enum TokenType {USDT, BUSD}\n\n    IERC20 public FIWA_TOKEN;\n\n    ISetting public SEEDING_SETTING;\n    ISetting public PRIVATE_SALE_SETTING;\n    ISetting public PUBLIC_SALE_SETTING;\n\n    ISetting public currentSetting;\n    ILocker public locker;\n\n    event BuyToken(address buyer, uint256 amount);\n\n    constructor(address lockerAddr, \n                address seedingSetting, \n                address privateSaleSetting, \n                address publicSaleSetting,\n                address usdtAddr,\n                address busdAddr,\n                address coriAddr) {\n        SEEDING_SETTING = ISetting(seedingSetting);\n        PRIVATE_SALE_SETTING = ISetting(privateSaleSetting);\n        PUBLIC_SALE_SETTING = ISetting(publicSaleSetting);\n\n        currentSetting = SEEDING_SETTING;\n\n        USDT_ADDRESS = usdtAddr;\n        BUSD_ADDRESS = busdAddr;\n\n        presaleIndex[seedingSetting] = 0;\n        presaleIndex[privateSaleSetting] = 1;\n        presaleIndex[publicSaleSetting] = 2;\n\n        FIWA_TOKEN = IERC20(coriAddr);\n\n        locker = ILocker(lockerAddr);\n    }\n\n    function addWhitelist(address[] memory addr) external onlyOwner {\n        for(uint i = 0; i < addr.length; i++)\n            whitelist[addr[i]] = true;\n    }\n\n    /**\n   * @dev update the current setting and status of presale\n   */\n    function updatePresaleStatus() internal {\n        if (block.number >= SEEDING_SETTING.start() && block.number <= SEEDING_SETTING.end()) {\n            currentSetting = SEEDING_SETTING;\n        }\n        else if (block.number >= PRIVATE_SALE_SETTING.start() && block.number <= PRIVATE_SALE_SETTING.end()) {\n            currentSetting = PRIVATE_SALE_SETTING;\n        }\n        else if (block.number >= PUBLIC_SALE_SETTING.start() && block.number <= PUBLIC_SALE_SETTING.end()) {\n            currentSetting = PUBLIC_SALE_SETTING;\n        }\n    }\n\n    /**\n   * @dev\n   */\n    function deposit(address spender, uint256 amount, address tokenAddr) internal {\n        // amount of CORI token that we are going to sell\n        uint256 sellAmount = amount * currentSetting.price();\n        // transfer buyer's stable coin to this contract\n        IERC20(tokenAddr).transferFrom(spender, address(this), amount);\n        // transfer CORI token to buyer\n        FIWA_TOKEN.transferFrom(owner(), spender, sellAmount);\n        totalSold[address(currentSetting)] += sellAmount;\n        totalTokenSold += sellAmount;\n        if (address(currentSetting) != address(PUBLIC_SALE_SETTING))\n            // lock CORI token\n            locker.lock(spender, \n                        sellAmount, \n                        currentSetting.start(),\n                        currentSetting.end(),\n                        currentSetting.vestingMonth(),\n                        currentSetting.cliff(),\n                        presaleIndex[address(currentSetting)]);\n    }\n    \n    /**\n   * @dev user will call this function to buy our token by their stable coins\n   */\n    function buyToken(uint256 amount, TokenType tokenType) public {\n        updatePresaleStatus();\n        if (address(currentSetting) != address(PUBLIC_SALE_SETTING)) {\n            require(whitelist[_msgSender()], \"Not whitelisted address, you are not allowed to purchase in this time\");\n        }\n        require(block.number >= currentSetting.start() && block.number < currentSetting.end(), \"Presale is not started or has ended\");\n        require(tokenType == TokenType.USDT || tokenType == TokenType.BUSD, \"Invalid token type\");\n\n        uint256 buyAmount = amount * currentSetting.price();\n\n        require(buyAmount >= currentSetting.minPurchase(), \"Invest amount must larger or equal to than mininimum purchase amount\");\n        require(totalSold[address(currentSetting)] + buyAmount <= currentSetting.totalSupply(), \"No more token to sell in this round\");\n\n        // require(_seedingAllowances[_msgSender()] >= amount, \"Invalid address or the invest amount is higher than allowed\");\n        address tokenAddr;\n        if (tokenType == TokenType.USDT)\n            tokenAddr = USDT_ADDRESS;\n\n        if (tokenType == TokenType.BUSD)\n            tokenAddr = BUSD_ADDRESS;\n\n        deposit(_msgSender(), amount, tokenAddr);\n    }\n\n    function ownerWithdraw() external onlyOwner {\n        require(block.number > PUBLIC_SALE_SETTING.end(), \"Presale is not ended\");\n        IERC20 usdt = IERC20(USDT_ADDRESS);\n        IERC20 busd = IERC20(BUSD_ADDRESS);\n\n        if (usdt.balanceOf(address(this)) > 0)\n            usdt.transfer(owner(), usdt.balanceOf(address(this)));\n\n        if (busd.balanceOf(address(this)) > 0)\n            busd.transfer(owner(), busd.balanceOf(address(this)));\n    }\n}",
  "sourcePath": "/home/hanhvn/projects/core-contracts/contracts/Presale.sol",
  "compiler": {
    "name": "solc",
    "version": "0.8.1+commit.df193b15.Emscripten.clang"
  },
  "schemaVersion": "3.4.1",
  "updatedAt": "2021-06-21T12:16:56.119Z",
  "networkType": "ethereum",
  "devdoc": {
    "kind": "dev",
    "methods": {
      "buyToken(uint256,uint8)": {
        "details": "user will call this function to buy our token by their stable coins"
      },
      "owner()": {
        "details": "Returns the address of the current owner."
      },
      "renounceOwnership()": {
        "details": "Leaves the contract without owner. It will not be possible to call `onlyOwner` functions anymore. Can only be called by the current owner. NOTE: Renouncing ownership will leave the contract without an owner, thereby removing any functionality that is only available to the owner."
      },
      "transferOwnership(address)": {
        "details": "Transfers ownership of the contract to a new account (`newOwner`). Can only be called by the current owner."
      }
    },
    "version": 1
  },
  "userdoc": {
    "kind": "user",
    "methods": {},
    "version": 1
  }
}