{
  "contractName": "Presale",
  "abi": [
    {
      "inputs": [
        {
          "internalType": "address",
          "name": "lockerAddr",
          "type": "address"
        },
        {
          "internalType": "address",
          "name": "seedingSetting",
          "type": "address"
        },
        {
          "internalType": "address",
          "name": "privateSaleSetting",
          "type": "address"
        },
        {
          "internalType": "address",
          "name": "publicSaleSetting",
          "type": "address"
        },
        {
          "internalType": "address",
          "name": "usdtAddr",
          "type": "address"
        },
        {
          "internalType": "address",
          "name": "busdAddr",
          "type": "address"
        },
        {
          "internalType": "address",
          "name": "coriAddr",
          "type": "address"
        }
      ],
      "stateMutability": "nonpayable",
      "type": "constructor"
    },
    {
      "anonymous": false,
      "inputs": [
        {
          "indexed": false,
          "internalType": "address",
          "name": "buyer",
          "type": "address"
        },
        {
          "indexed": false,
          "internalType": "uint256",
          "name": "amount",
          "type": "uint256"
        }
      ],
      "name": "BuyToken",
      "type": "event"
    },
    {
      "anonymous": false,
      "inputs": [
        {
          "indexed": true,
          "internalType": "address",
          "name": "previousOwner",
          "type": "address"
        },
        {
          "indexed": true,
          "internalType": "address",
          "name": "newOwner",
          "type": "address"
        }
      ],
      "name": "OwnershipTransferred",
      "type": "event"
    },
    {
      "inputs": [],
      "name": "BUSD_ADDRESS",
      "outputs": [
        {
          "internalType": "address",
          "name": "",
          "type": "address"
        }
      ],
      "stateMutability": "view",
      "type": "function"
    },
    {
      "inputs": [],
      "name": "FIWA_TOKEN",
      "outputs": [
        {
          "internalType": "contract IERC20",
          "name": "",
          "type": "address"
        }
      ],
      "stateMutability": "view",
      "type": "function"
    },
    {
      "inputs": [],
      "name": "PRIVATE_SALE_SETTING",
      "outputs": [
        {
          "internalType": "contract ISetting",
          "name": "",
          "type": "address"
        }
      ],
      "stateMutability": "view",
      "type": "function"
    },
    {
      "inputs": [],
      "name": "PUBLIC_SALE_SETTING",
      "outputs": [
        {
          "internalType": "contract ISetting",
          "name": "",
          "type": "address"
        }
      ],
      "stateMutability": "view",
      "type": "function"
    },
    {
      "inputs": [],
      "name": "SEEDING_SETTING",
      "outputs": [
        {
          "internalType": "contract ISetting",
          "name": "",
          "type": "address"
        }
      ],
      "stateMutability": "view",
      "type": "function"
    },
    {
      "inputs": [],
      "name": "USDT_ADDRESS",
      "outputs": [
        {
          "internalType": "address",
          "name": "",
          "type": "address"
        }
      ],
      "stateMutability": "view",
      "type": "function"
    },
    {
      "inputs": [
        {
          "internalType": "address",
          "name": "",
          "type": "address"
        }
      ],
      "name": "balances",
      "outputs": [
        {
          "internalType": "uint256",
          "name": "",
          "type": "uint256"
        }
      ],
      "stateMutability": "view",
      "type": "function"
    },
    {
      "inputs": [],
      "name": "currentSetting",
      "outputs": [
        {
          "internalType": "contract ISetting",
          "name": "",
          "type": "address"
        }
      ],
      "stateMutability": "view",
      "type": "function"
    },
    {
      "inputs": [],
      "name": "locker",
      "outputs": [
        {
          "internalType": "contract ILocker",
          "name": "",
          "type": "address"
        }
      ],
      "stateMutability": "view",
      "type": "function"
    },
    {
      "inputs": [],
      "name": "owner",
      "outputs": [
        {
          "internalType": "address",
          "name": "",
          "type": "address"
        }
      ],
      "stateMutability": "view",
      "type": "function"
    },
    {
      "inputs": [],
      "name": "renounceOwnership",
      "outputs": [],
      "stateMutability": "nonpayable",
      "type": "function"
    },
    {
      "inputs": [
        {
          "internalType": "address",
          "name": "",
          "type": "address"
        }
      ],
      "name": "totalSold",
      "outputs": [
        {
          "internalType": "uint256",
          "name": "",
          "type": "uint256"
        }
      ],
      "stateMutability": "view",
      "type": "function"
    },
    {
      "inputs": [],
      "name": "totalTokenSold",
      "outputs": [
        {
          "internalType": "uint256",
          "name": "",
          "type": "uint256"
        }
      ],
      "stateMutability": "view",
      "type": "function"
    },
    {
      "inputs": [
        {
          "internalType": "address",
          "name": "newOwner",
          "type": "address"
        }
      ],
      "name": "transferOwnership",
      "outputs": [],
      "stateMutability": "nonpayable",
      "type": "function"
    },
    {
      "inputs": [
        {
          "internalType": "address",
          "name": "",
          "type": "address"
        }
      ],
      "name": "whitelist",
      "outputs": [
        {
          "internalType": "bool",
          "name": "",
          "type": "bool"
        }
      ],
      "stateMutability": "view",
      "type": "function"
    },
    {
      "inputs": [
        {
          "internalType": "address[]",
          "name": "addr",
          "type": "address[]"
        }
      ],
      "name": "addWhitelist",
      "outputs": [],
      "stateMutability": "nonpayable",
      "type": "function"
    },
    {
      "inputs": [
        {
          "internalType": "uint256",
          "name": "amount",
          "type": "uint256"
        },
        {
          "internalType": "enum Presale.TokenType",
          "name": "tokenType",
          "type": "uint8"
        }
      ],
      "name": "buyToken",
      "outputs": [],
      "stateMutability": "nonpayable",
      "type": "function"
    },
    {
      "inputs": [],
      "name": "ownerWithdraw",
      "outputs": [],
      "stateMutability": "nonpayable",
      "type": "function"
    }
  ],
  "bytecode": "0x60806040523480156200001157600080fd5b5060405162003149380380620031498339818101604052810190620000379190620002da565b600062000049620002bb60201b60201c565b9050806000806101000a81548173ffffffffffffffffffffffffffffffffffffffff021916908373ffffffffffffffffffffffffffffffffffffffff1602179055508073ffffffffffffffffffffffffffffffffffffffff16600073ffffffffffffffffffffffffffffffffffffffff167f8be0079c531659141344cd1fd0a4f28419497f9722a3daafe3b4186f6b6457e060405160405180910390a35085600860006101000a81548173ffffffffffffffffffffffffffffffffffffffff021916908373ffffffffffffffffffffffffffffffffffffffff16021790555084600960006101000a81548173ffffffffffffffffffffffffffffffffffffffff021916908373ffffffffffffffffffffffffffffffffffffffff16021790555083600a60006101000a81548173ffffffffffffffffffffffffffffffffffffffff021916908373ffffffffffffffffffffffffffffffffffffffff16021790555082600560006101000a81548173ffffffffffffffffffffffffffffffffffffffff021916908373ffffffffffffffffffffffffffffffffffffffff16021790555081600660006101000a81548173ffffffffffffffffffffffffffffffffffffffff021916908373ffffffffffffffffffffffffffffffffffffffff16021790555080600760006101000a81548173ffffffffffffffffffffffffffffffffffffffff021916908373ffffffffffffffffffffffffffffffffffffffff16021790555086600c60006101000a81548173ffffffffffffffffffffffffffffffffffffffff021916908373ffffffffffffffffffffffffffffffffffffffff16021790555050505050505050620003d5565b600033905090565b600081519050620002d481620003bb565b92915050565b600080600080600080600060e0888a031215620002f657600080fd5b6000620003068a828b01620002c3565b9750506020620003198a828b01620002c3565b96505060406200032c8a828b01620002c3565b95505060606200033f8a828b01620002c3565b9450506080620003528a828b01620002c3565b93505060a0620003658a828b01620002c3565b92505060c0620003788a828b01620002c3565b91505092959891949750929550565b600062000394826200039b565b9050919050565b600073ffffffffffffffffffffffffffffffffffffffff82169050919050565b620003c68162000387565b8114620003d257600080fd5b50565b612d6480620003e56000396000f3fe608060405234801561001057600080fd5b50600436106101165760003560e01c8063b5f7f636116100a2578063dce3804611610071578063dce380461461029b578063e25fb6ee146102b9578063edac985b146102e9578063f2fde38b14610305578063fb0ee5eb1461032157610116565b8063b5f7f63614610223578063c189205814610241578063c1b19a781461025f578063d7b96d4e1461027d57610116565b8063572b8734116100e9578063572b87341461018f578063715018a6146101ad5780637298bd17146101b75780638da5cb5b146101d55780639b19251a146101f357610116565b806323e998ff1461011b57806327e235e3146101395780634311de8f146101695780634ce58f1514610173575b600080fd5b61012361033f565b60405161013091906126a2565b60405180910390f35b610153600480360381019061014e919061230b565b610365565b60405161016091906127bd565b60405180910390f35b61017161037d565b005b61018d600480360381019061018891906123c7565b61088a565b005b61019761108b565b6040516101a491906126a2565b60405180910390f35b6101b56110b1565b005b6101bf6111eb565b6040516101cc91906126a2565b60405180910390f35b6101dd611211565b6040516101ea9190612575565b60405180910390f35b61020d6004803603810190610208919061230b565b61123a565b60405161021a9190612651565b60405180910390f35b61022b61125a565b60405161023891906127bd565b60405180910390f35b610249611260565b6040516102569190612575565b60405180910390f35b610267611286565b6040516102749190612575565b60405180910390f35b6102856112ac565b6040516102929190612687565b60405180910390f35b6102a36112d2565b6040516102b0919061266c565b60405180910390f35b6102d360048036038101906102ce919061230b565b6112f8565b6040516102e091906127bd565b60405180910390f35b61030360048036038101906102fe9190612334565b611310565b005b61031f600480360381019061031a919061230b565b611447565b005b6103296115f0565b60405161033691906126a2565b60405180910390f35b600a60009054906101000a900473ffffffffffffffffffffffffffffffffffffffff1681565b60026020528060005260406000206000915090505481565b610385611616565b73ffffffffffffffffffffffffffffffffffffffff166103a3611211565b73ffffffffffffffffffffffffffffffffffffffff16146103f9576040517f08c379a00000000000000000000000000000000000000000000000000000000081526004016103f09061275d565b60405180910390fd5b600a60009054906101000a900473ffffffffffffffffffffffffffffffffffffffff1673ffffffffffffffffffffffffffffffffffffffff1663efbe1c1c6040518163ffffffff1660e01b815260040160206040518083038186803b15801561046157600080fd5b505afa158015610475573d6000803e3d6000fd5b505050506040513d601f19601f82011682018060405250810190610499919061239e565b43116104da576040517f08c379a00000000000000000000000000000000000000000000000000000000081526004016104d1906126fd565b60405180910390fd5b6000600560009054906101000a900473ffffffffffffffffffffffffffffffffffffffff1690506000600660009054906101000a900473ffffffffffffffffffffffffffffffffffffffff16905060008273ffffffffffffffffffffffffffffffffffffffff166370a08231306040518263ffffffff1660e01b81526004016105639190612575565b60206040518083038186803b15801561057b57600080fd5b505afa15801561058f573d6000803e3d6000fd5b505050506040513d601f19601f820116820180604052508101906105b3919061239e565b11156106d7578173ffffffffffffffffffffffffffffffffffffffff1663a9059cbb6105dd611211565b8473ffffffffffffffffffffffffffffffffffffffff166370a08231306040518263ffffffff1660e01b81526004016106169190612575565b60206040518083038186803b15801561062e57600080fd5b505afa158015610642573d6000803e3d6000fd5b505050506040513d601f19601f82011682018060405250810190610666919061239e565b6040518363ffffffff1660e01b81526004016106839291906125c7565b602060405180830381600087803b15801561069d57600080fd5b505af11580156106b1573d6000803e3d6000fd5b505050506040513d601f19601f820116820180604052508101906106d59190612375565b505b60008173ffffffffffffffffffffffffffffffffffffffff166370a08231306040518263ffffffff1660e01b81526004016107129190612575565b60206040518083038186803b15801561072a57600080fd5b505afa15801561073e573d6000803e3d6000fd5b505050506040513d601f19601f82011682018060405250810190610762919061239e565b1115610886578073ffffffffffffffffffffffffffffffffffffffff1663a9059cbb61078c611211565b8373ffffffffffffffffffffffffffffffffffffffff166370a08231306040518263ffffffff1660e01b81526004016107c59190612575565b60206040518083038186803b1580156107dd57600080fd5b505afa1580156107f1573d6000803e3d6000fd5b505050506040513d601f19601f82011682018060405250810190610815919061239e565b6040518363ffffffff1660e01b81526004016108329291906125c7565b602060405180830381600087803b15801561084c57600080fd5b505af1158015610860573d6000803e3d6000fd5b505050506040513d601f19601f820116820180604052508101906108849190612375565b505b5050565b61089261161e565b600a60009054906101000a900473ffffffffffffffffffffffffffffffffffffffff1673ffffffffffffffffffffffffffffffffffffffff16600b60009054906101000a900473ffffffffffffffffffffffffffffffffffffffff1673ffffffffffffffffffffffffffffffffffffffff161461099d5760046000610915611616565b73ffffffffffffffffffffffffffffffffffffffff1673ffffffffffffffffffffffffffffffffffffffff16815260200190815260200160002060009054906101000a900460ff1661099c576040517f08c379a00000000000000000000000000000000000000000000000000000000081526004016109939061277d565b60405180910390fd5b5b600b60009054906101000a900473ffffffffffffffffffffffffffffffffffffffff1673ffffffffffffffffffffffffffffffffffffffff1663be9a65556040518163ffffffff1660e01b815260040160206040518083038186803b158015610a0557600080fd5b505afa158015610a19573d6000803e3d6000fd5b505050506040513d601f19601f82011682018060405250810190610a3d919061239e565b4310158015610aea5750600b60009054906101000a900473ffffffffffffffffffffffffffffffffffffffff1673ffffffffffffffffffffffffffffffffffffffff1663efbe1c1c6040518163ffffffff1660e01b815260040160206040518083038186803b158015610aaf57600080fd5b505afa158015610ac3573d6000803e3d6000fd5b505050506040513d601f19601f82011682018060405250810190610ae7919061239e565b43105b610b29576040517f08c379a0000000000000000000000000000000000000000000000000000000008152600401610b209061279d565b60405180910390fd5b60006001811115610b63577f4e487b7100000000000000000000000000000000000000000000000000000000600052602160045260246000fd5b816001811115610b9c577f4e487b7100000000000000000000000000000000000000000000000000000000600052602160045260246000fd5b1480610c175750600180811115610bdc577f4e487b7100000000000000000000000000000000000000000000000000000000600052602160045260246000fd5b816001811115610c15577f4e487b7100000000000000000000000000000000000000000000000000000000600052602160045260246000fd5b145b610c56576040517f08c379a0000000000000000000000000000000000000000000000000000000008152600401610c4d906126dd565b60405180910390fd5b6000600b60009054906101000a900473ffffffffffffffffffffffffffffffffffffffff1673ffffffffffffffffffffffffffffffffffffffff1663a035b1fe6040518163ffffffff1660e01b815260040160206040518083038186803b158015610cc057600080fd5b505afa158015610cd4573d6000803e3d6000fd5b505050506040513d601f19601f82011682018060405250810190610cf8919061239e565b83610d039190612890565b9050600b60009054906101000a900473ffffffffffffffffffffffffffffffffffffffff1673ffffffffffffffffffffffffffffffffffffffff166333b5b62e6040518163ffffffff1660e01b815260040160206040518083038186803b158015610d6d57600080fd5b505afa158015610d81573d6000803e3d6000fd5b505050506040513d601f19601f82011682018060405250810190610da5919061239e565b811015610de7576040517f08c379a0000000000000000000000000000000000000000000000000000000008152600401610dde9061273d565b60405180910390fd5b600b60009054906101000a900473ffffffffffffffffffffffffffffffffffffffff1673ffffffffffffffffffffffffffffffffffffffff166318160ddd6040518163ffffffff1660e01b815260040160206040518083038186803b158015610e4f57600080fd5b505afa158015610e63573d6000803e3d6000fd5b505050506040513d601f19601f82011682018060405250810190610e87919061239e565b8160036000600b60009054906101000a900473ffffffffffffffffffffffffffffffffffffffff1673ffffffffffffffffffffffffffffffffffffffff1673ffffffffffffffffffffffffffffffffffffffff16815260200190815260200160002054610ef4919061283a565b1115610f35576040517f08c379a0000000000000000000000000000000000000000000000000000000008152600401610f2c9061271d565b60405180910390fd5b6000806001811115610f70577f4e487b7100000000000000000000000000000000000000000000000000000000600052602160045260246000fd5b836001811115610fa9577f4e487b7100000000000000000000000000000000000000000000000000000000600052602160045260246000fd5b1415610fd557600560009054906101000a900473ffffffffffffffffffffffffffffffffffffffff1690505b60018081111561100e577f4e487b7100000000000000000000000000000000000000000000000000000000600052602160045260246000fd5b836001811115611047577f4e487b7100000000000000000000000000000000000000000000000000000000600052602160045260246000fd5b141561107357600660009054906101000a900473ffffffffffffffffffffffffffffffffffffffff1690505b61108561107e611616565b8583611b4f565b50505050565b600860009054906101000a900473ffffffffffffffffffffffffffffffffffffffff1681565b6110b9611616565b73ffffffffffffffffffffffffffffffffffffffff166110d7611211565b73ffffffffffffffffffffffffffffffffffffffff161461112d576040517f08c379a00000000000000000000000000000000000000000000000000000000081526004016111249061275d565b60405180910390fd5b600073ffffffffffffffffffffffffffffffffffffffff1660008054906101000a900473ffffffffffffffffffffffffffffffffffffffff1673ffffffffffffffffffffffffffffffffffffffff167f8be0079c531659141344cd1fd0a4f28419497f9722a3daafe3b4186f6b6457e060405160405180910390a360008060006101000a81548173ffffffffffffffffffffffffffffffffffffffff021916908373ffffffffffffffffffffffffffffffffffffffff160217905550565b600b60009054906101000a900473ffffffffffffffffffffffffffffffffffffffff1681565b60008060009054906101000a900473ffffffffffffffffffffffffffffffffffffffff16905090565b60046020528060005260406000206000915054906101000a900460ff1681565b60015481565b600560009054906101000a900473ffffffffffffffffffffffffffffffffffffffff1681565b600660009054906101000a900473ffffffffffffffffffffffffffffffffffffffff1681565b600c60009054906101000a900473ffffffffffffffffffffffffffffffffffffffff1681565b600760009054906101000a900473ffffffffffffffffffffffffffffffffffffffff1681565b60036020528060005260406000206000915090505481565b611318611616565b73ffffffffffffffffffffffffffffffffffffffff16611336611211565b73ffffffffffffffffffffffffffffffffffffffff161461138c576040517f08c379a00000000000000000000000000000000000000000000000000000000081526004016113839061275d565b60405180910390fd5b60005b8151811015611443576001600460008484815181106113d7577f4e487b7100000000000000000000000000000000000000000000000000000000600052603260045260246000fd5b602002602001015173ffffffffffffffffffffffffffffffffffffffff1673ffffffffffffffffffffffffffffffffffffffff16815260200190815260200160002060006101000a81548160ff021916908315150217905550808061143b906129cf565b91505061138f565b5050565b61144f611616565b73ffffffffffffffffffffffffffffffffffffffff1661146d611211565b73ffffffffffffffffffffffffffffffffffffffff16146114c3576040517f08c379a00000000000000000000000000000000000000000000000000000000081526004016114ba9061275d565b60405180910390fd5b600073ffffffffffffffffffffffffffffffffffffffff168173ffffffffffffffffffffffffffffffffffffffff161415611533576040517f08c379a000000000000000000000000000000000000000000000000000000000815260040161152a906126bd565b60405180910390fd5b8073ffffffffffffffffffffffffffffffffffffffff1660008054906101000a900473ffffffffffffffffffffffffffffffffffffffff1673ffffffffffffffffffffffffffffffffffffffff167f8be0079c531659141344cd1fd0a4f28419497f9722a3daafe3b4186f6b6457e060405160405180910390a3806000806101000a81548173ffffffffffffffffffffffffffffffffffffffff021916908373ffffffffffffffffffffffffffffffffffffffff16021790555050565b600960009054906101000a900473ffffffffffffffffffffffffffffffffffffffff1681565b600033905090565b600860009054906101000a900473ffffffffffffffffffffffffffffffffffffffff1673ffffffffffffffffffffffffffffffffffffffff1663be9a65556040518163ffffffff1660e01b815260040160206040518083038186803b15801561168657600080fd5b505afa15801561169a573d6000803e3d6000fd5b505050506040513d601f19601f820116820180604052508101906116be919061239e565b431015801561176c5750600860009054906101000a900473ffffffffffffffffffffffffffffffffffffffff1673ffffffffffffffffffffffffffffffffffffffff1663efbe1c1c6040518163ffffffff1660e01b815260040160206040518083038186803b15801561173057600080fd5b505afa158015611744573d6000803e3d6000fd5b505050506040513d601f19601f82011682018060405250810190611768919061239e565b4311155b156117d957600860009054906101000a900473ffffffffffffffffffffffffffffffffffffffff16600b60006101000a81548173ffffffffffffffffffffffffffffffffffffffff021916908373ffffffffffffffffffffffffffffffffffffffff160217905550611b4d565b600960009054906101000a900473ffffffffffffffffffffffffffffffffffffffff1673ffffffffffffffffffffffffffffffffffffffff1663be9a65556040518163ffffffff1660e01b815260040160206040518083038186803b15801561184157600080fd5b505afa158015611855573d6000803e3d6000fd5b505050506040513d601f19601f82011682018060405250810190611879919061239e565b43101580156119275750600960009054906101000a900473ffffffffffffffffffffffffffffffffffffffff1673ffffffffffffffffffffffffffffffffffffffff1663efbe1c1c6040518163ffffffff1660e01b815260040160206040518083038186803b1580156118eb57600080fd5b505afa1580156118ff573d6000803e3d6000fd5b505050506040513d601f19601f82011682018060405250810190611923919061239e565b4311155b1561199457600960009054906101000a900473ffffffffffffffffffffffffffffffffffffffff16600b60006101000a81548173ffffffffffffffffffffffffffffffffffffffff021916908373ffffffffffffffffffffffffffffffffffffffff160217905550611b4c565b600a60009054906101000a900473ffffffffffffffffffffffffffffffffffffffff1673ffffffffffffffffffffffffffffffffffffffff1663be9a65556040518163ffffffff1660e01b815260040160206040518083038186803b1580156119fc57600080fd5b505afa158015611a10573d6000803e3d6000fd5b505050506040513d601f19601f82011682018060405250810190611a34919061239e565b4310158015611ae25750600a60009054906101000a900473ffffffffffffffffffffffffffffffffffffffff1673ffffffffffffffffffffffffffffffffffffffff1663efbe1c1c6040518163ffffffff1660e01b815260040160206040518083038186803b158015611aa657600080fd5b505afa158015611aba573d6000803e3d6000fd5b505050506040513d601f19601f82011682018060405250810190611ade919061239e565b4311155b15611b4b57600a60009054906101000a900473ffffffffffffffffffffffffffffffffffffffff16600b60006101000a81548173ffffffffffffffffffffffffffffffffffffffff021916908373ffffffffffffffffffffffffffffffffffffffff1602179055505b5b5b565b6000600b60009054906101000a900473ffffffffffffffffffffffffffffffffffffffff1673ffffffffffffffffffffffffffffffffffffffff1663a035b1fe6040518163ffffffff1660e01b815260040160206040518083038186803b158015611bb957600080fd5b505afa158015611bcd573d6000803e3d6000fd5b505050506040513d601f19601f82011682018060405250810190611bf1919061239e565b83611bfc9190612890565b90508173ffffffffffffffffffffffffffffffffffffffff166323b872dd8530866040518463ffffffff1660e01b8152600401611c3b93929190612590565b602060405180830381600087803b158015611c5557600080fd5b505af1158015611c69573d6000803e3d6000fd5b505050506040513d601f19601f82011682018060405250810190611c8d9190612375565b50600760009054906101000a900473ffffffffffffffffffffffffffffffffffffffff1673ffffffffffffffffffffffffffffffffffffffff166323b872dd611cd4611211565b86846040518463ffffffff1660e01b8152600401611cf493929190612590565b602060405180830381600087803b158015611d0e57600080fd5b505af1158015611d22573d6000803e3d6000fd5b505050506040513d601f19601f82011682018060405250810190611d469190612375565b508060026000611d54611616565b73ffffffffffffffffffffffffffffffffffffffff1673ffffffffffffffffffffffffffffffffffffffff1681526020019081526020016000206000828254611d9d919061283a565b925050819055508060036000600b60009054906101000a900473ffffffffffffffffffffffffffffffffffffffff1673ffffffffffffffffffffffffffffffffffffffff1673ffffffffffffffffffffffffffffffffffffffff1681526020019081526020016000206000828254611e15919061283a565b925050819055508060016000828254611e2e919061283a565b92505081905550600a60009054906101000a900473ffffffffffffffffffffffffffffffffffffffff1673ffffffffffffffffffffffffffffffffffffffff16600b60009054906101000a900473ffffffffffffffffffffffffffffffffffffffff1673ffffffffffffffffffffffffffffffffffffffff161461220657600c60009054906101000a900473ffffffffffffffffffffffffffffffffffffffff1673ffffffffffffffffffffffffffffffffffffffff16632b8f080e8560026000611ef7611616565b73ffffffffffffffffffffffffffffffffffffffff1673ffffffffffffffffffffffffffffffffffffffff16815260200190815260200160002054600b60009054906101000a900473ffffffffffffffffffffffffffffffffffffffff1673ffffffffffffffffffffffffffffffffffffffff1663be9a65556040518163ffffffff1660e01b815260040160206040518083038186803b158015611f9a57600080fd5b505afa158015611fae573d6000803e3d6000fd5b505050506040513d601f19601f82011682018060405250810190611fd2919061239e565b600b60009054906101000a900473ffffffffffffffffffffffffffffffffffffffff1673ffffffffffffffffffffffffffffffffffffffff1663efbe1c1c6040518163ffffffff1660e01b815260040160206040518083038186803b15801561203a57600080fd5b505afa15801561204e573d6000803e3d6000fd5b505050506040513d601f19601f82011682018060405250810190612072919061239e565b600b60009054906101000a900473ffffffffffffffffffffffffffffffffffffffff1673ffffffffffffffffffffffffffffffffffffffff1663014ac83d6040518163ffffffff1660e01b815260040160206040518083038186803b1580156120da57600080fd5b505afa1580156120ee573d6000803e3d6000fd5b505050506040513d601f19601f82011682018060405250810190612112919061239e565b600b60009054906101000a900473ffffffffffffffffffffffffffffffffffffffff1673ffffffffffffffffffffffffffffffffffffffff166313d033c06040518163ffffffff1660e01b815260040160206040518083038186803b15801561217a57600080fd5b505afa15801561218e573d6000803e3d6000fd5b505050506040513d601f19601f820116820180604052508101906121b2919061239e565b6040518763ffffffff1660e01b81526004016121d3969594939291906125f0565b600060405180830381600087803b1580156121ed57600080fd5b505af1158015612201573d6000803e3d6000fd5b505050505b50505050565b600061221f61221a846127fd565b6127d8565b9050808382526020820190508285602086028201111561223e57600080fd5b60005b8581101561226e57816122548882612278565b845260208401935060208301925050600181019050612241565b5050509392505050565b60008135905061228781612cd9565b92915050565b600082601f83011261229e57600080fd5b81356122ae84826020860161220c565b91505092915050565b6000815190506122c681612cf0565b92915050565b6000813590506122db81612d07565b92915050565b6000813590506122f081612d17565b92915050565b60008151905061230581612d17565b92915050565b60006020828403121561231d57600080fd5b600061232b84828501612278565b91505092915050565b60006020828403121561234657600080fd5b600082013567ffffffffffffffff81111561236057600080fd5b61236c8482850161228d565b91505092915050565b60006020828403121561238757600080fd5b6000612395848285016122b7565b91505092915050565b6000602082840312156123b057600080fd5b60006123be848285016122f6565b91505092915050565b600080604083850312156123da57600080fd5b60006123e8858286016122e1565b92505060206123f9858286016122cc565b9150509250929050565b61240c816128ea565b82525050565b61241b816128fc565b82525050565b61242a81612932565b82525050565b61243981612956565b82525050565b6124488161297a565b82525050565b600061245b602683612829565b915061246682612a87565b604082019050919050565b600061247e601283612829565b915061248982612ad6565b602082019050919050565b60006124a1601483612829565b91506124ac82612aff565b602082019050919050565b60006124c4602383612829565b91506124cf82612b28565b604082019050919050565b60006124e7604483612829565b91506124f282612b77565b606082019050919050565b600061250a602083612829565b915061251582612bec565b602082019050919050565b600061252d604583612829565b915061253882612c15565b606082019050919050565b6000612550602383612829565b915061255b82612c8a565b604082019050919050565b61256f81612928565b82525050565b600060208201905061258a6000830184612403565b92915050565b60006060820190506125a56000830186612403565b6125b26020830185612403565b6125bf6040830184612566565b949350505050565b60006040820190506125dc6000830185612403565b6125e96020830184612566565b9392505050565b600060c0820190506126056000830189612403565b6126126020830188612566565b61261f6040830187612566565b61262c6060830186612566565b6126396080830185612566565b61264660a0830184612566565b979650505050505050565b60006020820190506126666000830184612412565b92915050565b60006020820190506126816000830184612421565b92915050565b600060208201905061269c6000830184612430565b92915050565b60006020820190506126b7600083018461243f565b92915050565b600060208201905081810360008301526126d68161244e565b9050919050565b600060208201905081810360008301526126f681612471565b9050919050565b6000602082019050818103600083015261271681612494565b9050919050565b60006020820190508181036000830152612736816124b7565b9050919050565b60006020820190508181036000830152612756816124da565b9050919050565b60006020820190508181036000830152612776816124fd565b9050919050565b6000602082019050818103600083015261279681612520565b9050919050565b600060208201905081810360008301526127b681612543565b9050919050565b60006020820190506127d26000830184612566565b92915050565b60006127e26127f3565b90506127ee828261299e565b919050565b6000604051905090565b600067ffffffffffffffff82111561281857612817612a47565b5b602082029050602081019050919050565b600082825260208201905092915050565b600061284582612928565b915061285083612928565b9250827fffffffffffffffffffffffffffffffffffffffffffffffffffffffffffffffff0382111561288557612884612a18565b5b828201905092915050565b600061289b82612928565b91506128a683612928565b9250817fffffffffffffffffffffffffffffffffffffffffffffffffffffffffffffffff04831182151516156128df576128de612a18565b5b828202905092915050565b60006128f582612908565b9050919050565b60008115159050919050565b600073ffffffffffffffffffffffffffffffffffffffff82169050919050565b6000819050919050565b600061293d82612944565b9050919050565b600061294f82612908565b9050919050565b600061296182612968565b9050919050565b600061297382612908565b9050919050565b60006129858261298c565b9050919050565b600061299782612908565b9050919050565b6129a782612a76565b810181811067ffffffffffffffff821117156129c6576129c5612a47565b5b80604052505050565b60006129da82612928565b91507fffffffffffffffffffffffffffffffffffffffffffffffffffffffffffffffff821415612a0d57612a0c612a18565b5b600182019050919050565b7f4e487b7100000000000000000000000000000000000000000000000000000000600052601160045260246000fd5b7f4e487b7100000000000000000000000000000000000000000000000000000000600052604160045260246000fd5b6000601f19601f8301169050919050565b7f4f776e61626c653a206e6577206f776e657220697320746865207a65726f206160008201527f6464726573730000000000000000000000000000000000000000000000000000602082015250565b7f496e76616c696420746f6b656e20747970650000000000000000000000000000600082015250565b7f50726573616c65206973206e6f7420656e646564000000000000000000000000600082015250565b7f4e6f206d6f726520746f6b656e20746f2073656c6c20696e207468697320726f60008201527f756e640000000000000000000000000000000000000000000000000000000000602082015250565b7f496e7665737420616d6f756e74206d757374206c6172676572206f722065717560008201527f616c20746f207468616e206d696e696e696d756d20707572636861736520616d60208201527f6f756e7400000000000000000000000000000000000000000000000000000000604082015250565b7f4f776e61626c653a2063616c6c6572206973206e6f7420746865206f776e6572600082015250565b7f4e6f742077686974656c697374656420616464726573732c20796f752061726560008201527f206e6f7420616c6c6f77656420746f20707572636861736520696e207468697360208201527f2074696d65000000000000000000000000000000000000000000000000000000604082015250565b7f50726573616c65206973206e6f742073746172746564206f722068617320656e60008201527f6465640000000000000000000000000000000000000000000000000000000000602082015250565b612ce2816128ea565b8114612ced57600080fd5b50565b612cf9816128fc565b8114612d0457600080fd5b50565b60028110612d1457600080fd5b50565b612d2081612928565b8114612d2b57600080fd5b5056fea26469706673582212209d301938d82943f8a054f50f742e15b6fbddda6232e9f6096dfd5d79e4e40a2264736f6c63430008010033",
  "immutableReferences": {},
  "source": "/**\n *Submitted for verification at BscScan.com on 2021-05-09\n*/\n\n// SPDX-License-Identifier: MIT\n\n\npragma solidity ^0.8.0;\n\nimport {Ownable} from \"./utils/Ownable.sol\";\nimport {IERC20} from \"./extensions/IERC20.sol\";\nimport {ILocker} from \"./extensions/ILocker.sol\";\n\n\nstruct PresaleSetting {\n    string name;\n    uint256 minPurchase;\n    uint256 start;\n    uint256 end;\n    uint256 lockDuration;\n    uint256 totalSupply;\n    uint256 PRICE;\n    uint256 vestingMonth;\n}\n\nstruct Balance {\n    address owner;\n    uint256 totalToken;\n    uint256 vestingPeriod;\n    uint256 availableBalance;\n    uint256 vestedBalance;\n}\n\ninterface ISetting {\n    function start() external view returns (uint256);\n    function end() external view returns (uint256);\n    function price() external view returns (uint256);\n    function lockDuration() external view returns (uint256);\n    function totalSupply() external view returns (uint256);\n    function minPurchase() external view returns (uint256);\n    function vestingMonth() external view returns (uint256);\n    function cliff() external view returns (uint256);\n}\n\ncontract Presale is Ownable {\n\n    uint256 public totalTokenSold;\n\n    mapping(address => uint256) public balances;\n    // tracking token sold by each stage using address of setting contracts.\n    mapping(address => uint256) public totalSold;\n    // list of users allowed to purchase in seeding and private sale\n    mapping(address => bool) public whitelist;\n\n    address public USDT_ADDRESS;\n    address public BUSD_ADDRESS;\n\n    enum TokenType {USDT, BUSD}\n\n    IERC20 public FIWA_TOKEN;\n\n    ISetting public SEEDING_SETTING;\n    ISetting public PRIVATE_SALE_SETTING;\n    ISetting public PUBLIC_SALE_SETTING;\n\n    ISetting public currentSetting;\n    ILocker public locker;\n\n    event BuyToken(address buyer, uint256 amount);\n\n    constructor(address lockerAddr, \n                address seedingSetting, \n                address privateSaleSetting, \n                address publicSaleSetting,\n                address usdtAddr,\n                address busdAddr,\n                address coriAddr) {\n        SEEDING_SETTING = ISetting(seedingSetting);\n        PRIVATE_SALE_SETTING = ISetting(privateSaleSetting);\n        PUBLIC_SALE_SETTING = ISetting(publicSaleSetting);\n\n        USDT_ADDRESS = usdtAddr;\n        BUSD_ADDRESS = busdAddr;\n        FIWA_TOKEN = IERC20(coriAddr);\n\n        locker = ILocker(lockerAddr);\n    }\n\n    function addWhitelist(address[] memory addr) external onlyOwner {\n        for(uint i = 0; i < addr.length; i++)\n            whitelist[addr[i]] = true;\n    }\n\n    /**\n   * @dev update the current setting and status of presale\n   */\n    function updatePresaleStatus() internal {\n        if (block.number >= SEEDING_SETTING.start() && block.number <= SEEDING_SETTING.end()) {\n            currentSetting = SEEDING_SETTING;\n        }\n        else if (block.number >= PRIVATE_SALE_SETTING.start() && block.number <= PRIVATE_SALE_SETTING.end()) {\n            currentSetting = PRIVATE_SALE_SETTING;\n        }\n        else if (block.number >= PUBLIC_SALE_SETTING.start() && block.number <= PUBLIC_SALE_SETTING.end()) {\n            currentSetting = PUBLIC_SALE_SETTING;\n        }\n    }\n\n    /**\n   * @dev\n   */\n    function deposit(address spender, uint256 amount, address tokenAddr) internal {\n        // amount of CORI token that we are going to sell\n        uint256 sellAmount = amount * currentSetting.price();\n        // transfer buyer's stable coin to this contract\n        IERC20(tokenAddr).transferFrom(spender, address(this), amount);\n        // transfer CORI token to buyer\n        FIWA_TOKEN.transferFrom(owner(), spender, sellAmount);\n        // // update user balance and total token sold\n        balances[_msgSender()] += sellAmount;\n        totalSold[address(currentSetting)] += sellAmount;\n        totalTokenSold += sellAmount;\n        if (address(currentSetting) != address(PUBLIC_SALE_SETTING))\n            // lock CORI token\n            locker.lock(spender, \n                        balances[_msgSender()], \n                        currentSetting.start(),\n                        currentSetting.end(),\n                        currentSetting.vestingMonth(),\n                        currentSetting.cliff());\n    }\n    \n    /**\n   * @dev user will call this function to buy our token by their stable coins\n   */\n    function buyToken(uint256 amount, TokenType tokenType) public {\n        updatePresaleStatus();\n        if (address(currentSetting) != address(PUBLIC_SALE_SETTING)) {\n            require(whitelist[_msgSender()], \"Not whitelisted address, you are not allowed to purchase in this time\");\n        }\n        require(block.number >= currentSetting.start() && block.number < currentSetting.end(), \"Presale is not started or has ended\");\n        require(tokenType == TokenType.USDT || tokenType == TokenType.BUSD, \"Invalid token type\");\n\n        uint256 buyAmount = amount * currentSetting.price();\n\n        require(buyAmount >= currentSetting.minPurchase(), \"Invest amount must larger or equal to than mininimum purchase amount\");\n        require(totalSold[address(currentSetting)] + buyAmount <= currentSetting.totalSupply(), \"No more token to sell in this round\");\n\n        // require(_seedingAllowances[_msgSender()] >= amount, \"Invalid address or the invest amount is higher than allowed\");\n        address tokenAddr;\n        if (tokenType == TokenType.USDT)\n            tokenAddr = USDT_ADDRESS;\n\n        if (tokenType == TokenType.BUSD)\n            tokenAddr = BUSD_ADDRESS;\n\n        deposit(_msgSender(), amount, tokenAddr);\n    }\n\n    function ownerWithdraw() external onlyOwner {\n        require(block.number > PUBLIC_SALE_SETTING.end(), \"Presale is not ended\");\n        IERC20 usdt = IERC20(USDT_ADDRESS);\n        IERC20 busd = IERC20(BUSD_ADDRESS);\n\n        if (usdt.balanceOf(address(this)) > 0)\n            usdt.transfer(owner(), usdt.balanceOf(address(this)));\n\n        if (busd.balanceOf(address(this)) > 0)\n            busd.transfer(owner(), busd.balanceOf(address(this)));\n    }\n}",
  "sourcePath": "/home/hanhvn/projects/core-contracts/contracts/Presale.sol",
  "compiler": {
    "name": "solc",
    "version": "0.8.1+commit.df193b15.Emscripten.clang"
  },
  "schemaVersion": "3.3.4",
  "updatedAt": "2021-06-17T07:46:06.200Z",
  "devdoc": {
    "kind": "dev",
    "methods": {
      "buyToken(uint256,uint8)": {
        "details": "user will call this function to buy our token by their stable coins"
      },
      "owner()": {
        "details": "Returns the address of the current owner."
      },
      "renounceOwnership()": {
        "details": "Leaves the contract without owner. It will not be possible to call `onlyOwner` functions anymore. Can only be called by the current owner. NOTE: Renouncing ownership will leave the contract without an owner, thereby removing any functionality that is only available to the owner."
      },
      "transferOwnership(address)": {
        "details": "Transfers ownership of the contract to a new account (`newOwner`). Can only be called by the current owner."
      }
    },
    "version": 1
  },
  "userdoc": {
    "kind": "user",
    "methods": {},
    "version": 1
  }
}